:10000000B7C30000C7C30000C5C30000C3C30000DE
:10001000C1C300000C942F24BDC300000C94FD0943
:10002000B9C30000B7C300000C94741A0C941324D5
:100030000C9421240C944E1AADC30000ABC30000F5
:100040000C94ED23A7C30000A5C30000A3C30000C8
:10005000A1C300000C94FE099DC300009BC30000D7
:1000600099C3000097C30000960598059C05A60556
:10007000A405A005A005A205AC05AC05C600BD0001
:10008000B4001008407E01013E01013E01013E0125
:10009000017E404018000720080808F800000020F2
:1000A00060A03FA06020020202FF020202101010B6
:1000B0001F0000000708FFDBBDB5B5CBFF0708FF39
:1000C000BB9DADADB3FF0708FFFFF7FB81FFFF103E
:1000D000100508F878385888091003081C3E7F0D71
:1000E000080710FF818181F1E1C1FF404040474393
:1000F000410D080110FFFF11080310F1E1C1474352
:10010000410E0008202121122060E0E0E0FEFE0404
:1001100002010001037F7F21C2C4C4C04094840057
:1001200007030102040E080210FEFE7F7F0000009C
:1001300000110005202060E0E0E00201000103C2A0
:10014000C4C4C0400703010204010410090A0C4E94
:100150006F742063616C696272617465642100B9B7
:1001600003870358032E030703E402C302A4028893
:10017000020000140029003E00530069008000972F
:1001800000AE00C600DF00F80012012D0149016534
:10019000018201A001BE01DE01FF012102440268CB
:1001A000028E02B502DE020903350364039403C81C
:1001B00003FE0337047304B404F90443059305EA0A
:1001C000054906B3062907AE074808FF08DE0900FF
:1001D0000000000000000000000000000000001E01
:1001E0002121211200807F0000007E4A4A4A34000B
:1001F0000000000000FC4020100804020100000084
:10020000010101010101010101010101017F0488D6
:10021000D0E0F0F800000000000000000000000046
:10022000000000000000FC94948400000102FC0027
:1002300000000000000000000000001E212121122B
:10024000E0C0804020100F000000C02020204000AF
:100250000000FC00009E9E04030303030200000054
:10026000202023242525232020203F00007B7B21E4
:1002700042840480C0000000000000000000000074
:10028000000000FC94948400040607070708F000AF
:10029000000000000000000000000000803F21215D
:1002A000120C00000000FF000000F0084848C800E1
:1002B00000FE0000E7818181C1E1F18181810100BF
:1002C0002020202121212020203F0000F340404019
:1002D00041434740407FC000000000000000000094
:1002E0000000000000489494946400000000FF00A7
:1002F0000000000000000000000000000000003FBF
:100300002121120C0000FF000000F0084848D00036
:100310000000000000FEFE040404040404040700BE
:1003200008080809090908087F3E1C08087F7F2083
:10033000202020202020E00000000000000000001D
:100340000000000000000048949494640000FF0046
:1003500000000000000000000000FF003C0A090A45
:100360003C002231292926000082868E9EBEFEFE98
:10037000BEDEEFF6FAFEFEFAF2E2C28200000008EC
:10038000080804027984A4A46800FF0000000000AB
:10039000000000000000000000000000000000005D
:1003A0000000FF0000F0282428F0001008FC0000E6
:1003B000000000000000000000003C0A090A3C00A8
:1003C000FF0000000000000000000000000000002E
:1003D000000000040C1C3C7CFF7C3C1C0C04000056
:1003E000000000009EA1A9A99A804323130B0703D4
:1003F000FF030303030303000000000000000000EC
:100400000000788484844800FF00000000000000A1
:100410000000F00804E2110909090909090909099C
:100420001121C2040810E0000000010204040700CA
:1004300000000000804020108844231008040300BE
:1004400000000000000000000000FE0100FC0201AE
:10045000000000000000000000000000000000009C
:100460000000794949790000000000000000000800
:100470003E22223E08087F2214087F7F0814227F34
:10048000087F7F00007F7F00586404645800807CF0
:1004900020201C22222222223E3E22222222220828
:1004A000080808080838404030404030404030409C
:1004B00038007E1515150A00062979290600000066
:1004C00000000000607E0A353F002A1C361C2A000E
:1004D000E0514F41FF007F404040FF007F407F40A0
:1004E000FF00E0544C44FC0018247E2418007C409B
:1004F0004040FC007C407C40FC0014B6FFB6140079
:1005000004067F06040010307F30100008083E1CEF
:100510000800081C3E080800784040404000083EA3
:10052000083E0800303C3F3C3000030F3F0F030003
:1005300000000000000000005F0000000003000356
:100540000000147F147F1400242A7F2A1200231332
:10055000086462003649552250000005030000007F
:10056000001C224100000041221C000014083E082B
:10057000140008083E08080000A0600000080808F1
:10058000080800000060600000002010080402005D
:100590003E5149453E0000427F40000042615149C2
:1005A00046002141454B31001814127F10002745A9
:1005B000454539003C4A49493000017109050300AD
:1005C000364949493600064949291E000036360099
:1005D00000000056360000000814224100001414E8
:1005E00014141400004122140800020151090600ED
:1005F000324979413E007E1111117E007F494949FF
:1006000036003E41414122007F4141221C007F498A
:10061000494941007F09090901003E4149497A00E1
:100620007F0808087F0000417F4100002040413FD3
:1006300001007F08142241007F40404040007F02BB
:100640000C027F007F0408107F003E4141413E00C4
:100650007F09090906003E4151215E007F091929E1
:10066000460046494949310001017F0101003F40F0
:1006700040403F001F2040201F003F4038403F00C7
:1006800063140814630007087008070061514945A6
:100690004300007F4141000018247E2410000041E7
:1006A000417F0000040201020400808080808000FD
:1006B0000001020000002054545438007F48444494
:1006C0003800384444442000384444487F003854BB
:1006D00054541800087E09010200085454543C0088
:1006E0007F080404780000447D4000002040443D21
:1006F00000007F102844000000417F4000007C047F
:10070000180478007C080404780038444444380015
:100710007C1414140800081414147C007C080404CD
:100720000800485454542000043F444020003C40FA
:1007300040207C001C2040201C003C4030403C00FD
:100740004428102844000C5050503C004464544C41
:10075000440000083641000000003F000000004156
:100760003608000008082A1C08003C2623263C0006
:1007700011241FBECFEFD8E0DEBFCDBF21E0A0E047
:10078000B1E001C01D92AE3BB207E1F70E94BC3060
:100790000C940E3935CC5A98529A15BE5D98559ADC
:1007A00080FF03C053985B9A02C05B98539AB7D4FA
:1007B000661F1AD0661F18D0661F16D0661F14D089
:1007C000661F12D0661F10D0661F0ED0661F0CD099
:1007D000A6D45A98529A55985D9A90E195BF5A9826
:1007E000529A5998519A08955A98529A18F45198D1
:1007F000599A02C05998519A52985A9A90C4089599
:1008000060933F01809304018093A501862F880F98
:10081000680F660F60930F01089580913F018093E8
:1008200001018091A5018093030108956091010168
:1008300080910301E5CF0895CF93C82F692F81E000
:10084000AADF6C2F81E0A7DFCF910895682F80E0A9
:10085000A2CF08958EEAFADF85EAF8CF08958DE0F9
:1008600028D48AE026C40895FADF1092A50160E03A
:1008700080E0C6CF0895CF93DF93C0E080E1E6DF4C
:1008800080E0E4DF8C2F806BE1DFD4E860E081E082
:1008900082DFD150D9F7CF5FC83081F7E5DFDF9134
:1008A000CF9108955C985A9859985D98549A529AA5
:1008B000519A559A2FD415BE55985D9A5B98539AC4
:1008C00084E12FD415BE54985C9A84E12AD48EEA30
:1008D000BDDF82EEBBDF82EAB9DF80EAB7DF80EC02
:1008E000B5DF8FE2B3DF84E2B1DF81E8AFDF8DE314
:1008F00093E00E94E0388F73A9DF80E4A7DF84EAE9
:10090000A5DF86EAA3DFB7DF8FEAA0DF60E080E043
:1009100077CF0895A4DF60E081E072CF08959FDF74
:1009200060E082E06DCF08959ADF60E083E068CFF9
:1009300008950895582F28E030E090E841E080E0E5
:10094000652F642309F0892B440F969521503109B6
:10095000B9F70895A0E0B0E0E0EBF4E00C944F3874
:10096000EC0110E0C801860F911D813891050CF053
:1009700066C0F12CE40EF11C31E4E316F1040CF036
:100980005EC0742E76947694769481E0E81AF1082D
:1009900093E0F594E7949A95E1F7E22FE2706E2EDA
:1009A00021FF0DC0C701992787199109809FA001D8
:1009B000819F500D909F500D1124C40FD51FF7E05B
:1009C000FE1510F487E0E82E862F82958F708061E7
:1009D000482E6F70F62E2170522EE71458F1872D95
:1009E000806B34DF842D32DF8F2D30DF5E01A00E6F
:1009F000B11EC5014E01C817D907A1F09C012150B5
:100A000031096901552011F0F90101C0F401849107
:100A1000611090DF682F81E0BEDEC601FFEF8F1A04
:100A20009F0AE9CF662019F05E01A01AB10A7394FB
:100A3000E501D3CF809104018F70806B07DFCDB7C4
:100A4000DEB7E0E10C946B38EF920F93482F282F1C
:100A50002F7080E6289F90011124C90181539E4F79
:100A6000242F207344FF02C038E001C038E43093E3
:100A70001001203218F01092000108C020E22093EB
:100A80000001209110012D5E2093100120E2E22E42
:100A900008E120E040910001609110015BDF0F91BF
:100AA000EF900895EF920F93262FFC0164913196F9
:100AB0004491319604913196E49030910001430FB6
:100AC00030911001630F049645DF0F91EF90089568
:100AD00060E0E8CF0895EF920F93CF93C82F8091F5
:100AE0003F018F5F80933F0140910401440F440F09
:100AF000440F26E0C29FC001112428E0E22E06E048
:100B000020E060910F0181599B4F24DF80910F01FC
:100B10008A5F80930F018C2F90E0FC013197EA30BF
:100B2000F105E0F4EC5CFF4F0C949D378EE305C0BB
:100B30008CE7BFD28CE313C08CE7BBD28CE70FC02D
:100B400082E50DC08DE20BC085E709C08FE4B1D20C
:100B500088E6AFD28DE603C08CE401C08C2FA9D209
:100B6000CF910F91EF9008958F5CB5CF089580E2FB
:100B7000B2CF0895CF93C82F1C161CF4F8DFC150D4
:100B8000FBCFCF91089590913F0185E1891BF2CF72
:100B90000895CF93C82FF7DF62DE8091A5018F5FA4
:100BA0008093A501883038F087E08093A50181E02B
:100BB0008093420102C0109242016C2F8091A501E6
:100BC0001FDECF910895E5DF7EC308954DDEDBDFA4
:100BD0004BCE08959FDED7DF9DCE08958DE37BCF6A
:100BE0000895CF93DF93EC018991882311F073DF8F
:100BF000FBCFDF91CF910895CF93DF93EC01FE01FE
:100C00008491982F9F7719F066DF2196F8CFDF91B6
:100C1000CF910895CF93DF93EC01CE010E94E0388D
:100C2000982F9F7719F057DF2196F7CFDF91CF915B
:100C30000895EF920F93FC0104913196E49002968F
:100C400089DE0F91EF9008950F938FE991E0E2DF35
:100C5000409189014D3F64F4609177017091780172
:100C60008091790190917A0103E026E4E8D002C0F6
:100C70008FE331DF0F91089597FF09C08F939F9302
:100C80008DE229DF9F918F91909581959F4F65E22D
:100C900071E04AE050E00E94AD38A3CF0895ECDF48
:100CA00001C0EADF64CF0895EF92FF920F931F9384
:100CB000182F062FF42E81E891E0ACDFEE24E091AE
:100CC0004001F09141018685E81611F4812F09C099
:100CD0008485E81611F4802F04C08585E81611F488
:100CE0008F2DF9DEE3948E2D833049F71F910F91FC
:100CF000FF90EF900895EF92FF920F931F93182F9C
:100D0000062FF42E80E05FDF87E891E083DFEE249A
:100D10008E2D2ADF63DFE0914001F091410186854D
:100D2000E81611F4812F09C08485E81611F4802F8C
:100D300004C08585E81611F48F2DCDDE18DFE3940D
:100D40008E2D833029F71F910F91FF90EF9008951A
:100D5000682F80E092E0662309F491E0623009F4A4
:100D600081E008950F93082FE6EAF1E0880F880FDD
:100D7000E80FF11D60817181828193816436710574
:100D80008105910570F42091020127FD0AC0802F92
:100D9000DFDF692F0E94EE1F6EEF23E044E039D1C0
:100DA00004C04FEF04E024E04AD0E1DE0F91089543
:100DB000863058F4E9E9F1E0E80FF11DE80FF11D84
:100DC0008081918163E030D1D2CE08951F93182F96
:100DD00080917301882319F0CADE80E07CDE9ADD01
:100DE00088E791E017DF812F82958F70E1DF812FF7
:100DF0008F70DEDF1F910895CF93DF9380911101F3
:100E000082958F70CDE8D1E0C80FD11D8881ACDE0E
:100E100080E491E0FFDE8E81A7DE80E491E0FADEDF
:100E2000CDE8D1E0809111018370C80FD11D8E8172
:100E30009BDE80911101CADFDF91CF910895AEE072
:100E4000B0E0E5E2F7E00C944D38142F622E702EDE
:100E50006B017C010F7080E389838A838B838C8391
:100E60008D838E83F7FE0BC08DE235DEF094E09427
:100E7000D094C094C11CD11CE11CF11C04C075FEAF
:100E800002C08BE228DE033071F0043099F00530A7
:100E9000C1F00630F1F0073021F174E6872E912C75
:100EA000A12CB12C25C068EE862E63E0962EA12CD5
:100EB000B12C1EC050E1852E57E2952EA12CB12CED
:100EC00017C040EA842E46E8942EAA24A394B12C9D
:100ED0000FC030E4832E32E4932E3FE0A32EB12CDA
:100EE00007C020E8822E26E9922E28E9A22EB12CF6
:100EF0009AE0292E312C412C512CC814D904EA0433
:100F0000FB0470F0C701B6016B5F7F4F8F4F9F4F9F
:100F1000A20191010E945F3769017A011F5FEDCF45
:100F200081E1810F9BEA899F812D1124A82EA6942F
:100F300086E0811B899F112D11241695912F990F01
:100F4000190F811B182F4E0187E0880E911C2AE093
:100F5000A401C701B6010E948C38F4010190002061
:100F6000E9F731977F01E818F9089E2C6701DD2425
:100F7000812F90E004968C159D0514F4A3941D5FB9
:100F80008A2D90E08B5C9F4F0E94E038A82E74FE63
:100F900004C0901610F40E1901C000E08E2C811AC6
:100FA000800E181424F08EE296DD012F0E19111117
:100FB00002C088EF882E912C10E0C00ED11EE82CC4
:100FC000082C000CFF08892D90E08C159D05ACF4D1
:100FD000FC013696E01BF10B81E090E08C0F9D1F29
:100FE000E80FF91F808177DD9394892D90E08E15AD
:100FF0009F0549F78EE26FDDE6CFAA2011F08A2D1A
:101000006ADD662011F0862D66DD2E96E2E10C94F5
:1010100069380F93362FBC0180E090E0022F242F17
:10102000432F0DDF0F9108950F93062FBC0180E031
:1010300090E026E54DEF03DF0F9108950F93042F05
:1010400028E440E0FCDE8AE746DD91DD0F9108955B
:10105000E82FF0E0EE0FFF1FE458FF4FA591B49189
:1010600090910001490F90911001690F20E0CD018E
:10107000E0CD0895CF93DF93C82FD62FE0914001A4
:10108000F091410148E16EE18685E2DFE0914001A7
:10109000F09141014D2F6C2F8485DADFE091400102
:1010A000F091410140E06EE18585D2DFDF91CF9183
:1010B00008958F932F932AE080953B9A089410F41B
:1010C000439802C0439A000020D027D086952A95E5
:1010D000B1F72F918F91089503D002D001D000D0A5
:1010E00000D003D002D001D000D000D003D002D075
:1010F00001D000D000D0A89503D002D001D000D0FC
:1011000000D003D002D001D000D000D003D002D054
:1011100001D000D000D003D002D001D000D0000018
:10112000089590E0893C28F0885C48EC849FC001D9
:101130001124009709F4089520918100277019F077
:10114000DADF0197F6CF8130910519F002973EE37F
:1011500003C037E180E090E02091B200230F20939C
:10116000B30042E04093700027E023BF889526E05B
:1011700023BF10927000A895DCCF8F9384E0D1DF5D
:1011800007C08F9382E0CDDF03C08F9381E0C9DF7A
:101190008F911F93182F106410937C00E12FE0783B
:1011A00080913001E81759F0E0933001AEDF8EE90D
:1011B00080937A0083E083BF889582E083BF20E03C
:1011C00030E0A901E0E01FC08EE980937A0083E05F
:1011D00083BF889582E083BF609178007091790029
:1011E000260F371F411D511DE43061F480913201FB
:1011F000803041F084E02030380720F417FD02C031
:101200001068CACFEF5F80912F01E817E8F2609174
:1012100033017091340117FF04C060913101709166
:10122000320180E090E00E941D372FEF33E040E074
:1012300050E00E945F37B901CA0120912F0130E0D0
:1012400040E050E00E945F37C9011F910895EF927E
:10125000FF920F931F93CF93DF93F82EE92EC5E6ED
:101260004F9B05C0CF2DDE2D15E500E019C081E0B4
:1012700058DFC150A9F7F6CF82E053DF110F4F9B23
:101280001F5F1F731F3379F4011103C0CF2DDE2DB3
:1012900004E00F5F063988F4A8951C161D0644F07B
:1012A000D7FFEACF0AC01111F7CF0023A9F305C079
:1012B0002A97B1F7CFEFDFEFF3CF802FCDB7DEB7AF
:1012C000E6E00C947538CF93A8DAC82F80914201DC
:1012D0008823D1F0813051F4C73041F464E187E0D4
:1012E0008FDA8BE2F8DB64E187E08ADA80E49FE161
:1012F000AEDFC73041F480914201813021F460E0DB
:1013000087E07EDA40DC92DACF91089586E693E0BA
:101310000E94E038382F87E693E00E94E038209161
:101320003701230F30913801381F20931A01309371
:101330001B0183E0283E380720F0C901885E9340F6
:1013400002C080E090E062E370E00E9438376830CD
:1013500008F067E0EFE5F1E0E60FF11DE60FF11DA3
:10136000459155912591359162E3681B421B530BC2
:10137000649FC001659F900D1124499662E370E05F
:101380000E943837620F731F709376016093750166
:1013900088E693E00E94E038992787FD9095609158
:1013A000370170913801860F971F90933201809317
:1013B000310190937201809371010895CF93DF936F
:1013C00024E130E0B9010E943837DC01E1E7F1E0C7
:1013D000E60FF71FE60FF71FC591D591459155917F
:1013E0004C1B4A9FC0011124B9010E9438376C0F71
:1013F0007D1FCB01DF91CF9108951895189510921C
:101400001E0110921C0110926C0110925201109258
:101410001D0110923E0110927301E7E5F1E0108288
:1014200011821282E7E7F1E0108A82E0818B10924C
:10143000020117861686148215821682178281EFA2
:10144000838B089507DA5E9880E090E000CF0895DE
:101450001F93CF93DF93162F98E097B998B9E82F91
:10146000F0E0E75BFE4F949195B9262F281BE20F21
:10147000F11D27FDFA95E491E92BE4B98ADEEC0130
:10148000812F87DEAC0120913301309134013695F4
:101490002795C9010397BE01625E7F4F86179707A4
:1014A00078F4255E3F4FC217D30750F4BA01625E4D
:1014B0007F4F8617970720F481E04217530708F003
:1014C00080E014B8DF91CF911F910895CF9361E030
:1014D00080E0BEDFC82F62E080E0BADFC80F62E0C4
:1014E00081E0B6DF8C0FCF910895AFE0B0E0EBE77D
:1014F000FAE00C944D38B82E10921E01807FA9F4AA
:10150000E5DF833009F078C3B6D981E792E082DB6A
:1015100001DA8FE3E0DA80ED97E099DE8B30C0F4FA
:10152000AAD98EE091E076DB67C306E910E0A3D983
:1015300086ED91E06FDBCADF833021F41F5F14304A
:1015400010F006C010E088E2ECDD015081F763C0C6
:10155000E1D90E94D51A8AEC90E05CDB60E080E47F
:1015600093E00E94ED3860E081E493E00E94ED3862
:1015700060E08FE393E00E94ED3860E082E00E943B
:10158000EE1F6C019A83898361E082E00E94EE1F66
:101590007C019C838B8360E081E00E94EE1F8C01C4
:1015A0009E838D8323E040E26EEFC60132DD23E0AF
:1015B00040E26EEFC7012DDD23E044E06EEFC8018D
:1015C00028DD2AE5C216D10424F084E190E09A8354
:1015D0008983698180E493E00E94ED388AE5E8160A
:1015E000F10424F084E190E09C838B836B8181E49F
:1015F00093E00E94ED380A35110524F084E190E073
:101600009E838D836D818FE393E00E94ED3882E0AD
:101610008093420158DEEB2DEF70EF87E13011F03F
:1016200018E734C1EE24E394F12C78EB872E72EDA9
:10163000972E77E4A72EB12CE2E0DE2E08E0F0E250
:101640003F2EC12C1E2D52E2252EC4DABFDA84E5CE
:1016500042DAC7011CDB8BDA1130B1F48DEF90E078
:10166000D9DA64E08091370190913801DDDC52D9FC
:1016700088EF90E0CFDA809175019091760107DBD9
:101680008EEB80932F01DFC0123079F5209133016A
:1016900030913401A8E5BBE10E94A33724EC36E386
:1016A00040E050E00E94813729013A0181E085B98C
:1016B000F5E0F4B980E061DD841995099A838983A6
:1016C00081E184B980E059DD841995099C838B837D
:1016D00084E085B984E184B981E04FDD84199509FE
:1016E0009E838D8382EE90E09EC0133041F5D5B885
:1016F0002AE024B980E041DD2091330130913401AA
:101700003695279538872F83821B930B9A8389837D
:1017100024B880E032DD2F813885821B930B9C83B7
:101720008B8305B988E284B981E027DD2F81388574
:10173000821B930B9E838D8384ED90E074C01430E4
:1017400039F481E692E066DAC1DE811152C26FC0DF
:10175000153099F415B8D4B880E00FDD9A838983E9
:1017600004B981E00ADD9C838B8334B882E005DD17
:101770009E838D8384EF90E056C0163039F5D4B83F
:10178000D5B880E0FADC2091330130913401821B1E
:10179000930B9A83898304B905B981E0EEDC20912B
:1017A000330130913401821B930B9C838B8334B8BB
:1017B00035B882E0E2DC2091330130913401821BA4
:1017C000930B9E838D8380EF90E02DC0173069F5D9
:1017D0002091330130913401A8E5BBE10E94A33789
:1017E000A50194010E945F3729013A01D5B8E3E0D1
:1017F000E4B980E0C2DC841995099A83898305B92C
:10180000FCE0F4B981E0B9DC841995099C838B83F1
:1018100035B820E324B982E0B0DC841995099E83B1
:101820008D838EEC90E0F6D902C0113061F072D851
:1018300089819A8121DA9BD98B819C811DDA97D984
:101840008D819E8119DA07B908B914B815B888EEE8
:1018500093E0FDDC143011F08B3020F4C39484E06D
:10186000C812F3CE88EE93E0F2DCEFEFEE1AFE0A38
:10187000F8E0EF16F10409F0E4CED2CEABD981E660
:1018800092E0C8D984E64DDC115019F01FDE8111B9
:10189000F5CF0E943B0483EC90E0BCD923E044E008
:1018A0006FEF8091350190913601B3DB33D88CEB2B
:1018B00090E0B0D923E044E06FEF80913C0190913B
:1018C0003D01A7DB82E080934201FDDC10921E0106
:1018D0000E943B0488EB90E09DD960E082E00E948A
:1018E000861780907F0190908001A0908101B09038
:1018F00082019C868B8661E082E00E948617C09000
:101900007F01D0908001E0908101F0908201DE861D
:10191000CD8660E081E00E94861700917F011091E2
:1019200080011E830D8362E080E00E948617809113
:101930007F01909180019C838B8362E081E00E9413
:10194000861780917F01909180019A87898761E055
:1019500080E00E94861780917F01909180019A8398
:1019600089832F85213021F020913B01223021F401
:10197000029698878F8304C098878F8310923B01CB
:10198000C4018FD9C6018DD9B801110F880B990BED
:1019900003E026E444EF53DA8E010F5F1F4F6E0120
:1019A0008FE0C80ED11CF801819191910A97853B77
:1019B0009105D0F4CE16DF06B9F74FE5E42E43E0EB
:1019C000F42EF80160810E5F1F4F6E5EC7010E940A
:1019D000ED38FFEFEF1AFF0AC016D10691F70E940B
:1019E0008A0484EC91E016D982E0809342016BDC9A
:1019F0000E94742D2F85213029F080913B01823087
:101A000009F0E1C020E4F22E10E03AE0832E912CA0
:101A1000A12CB12CF4DC0E943B0480E0A5D88AE61E
:101A200091E0F8D882E0A0D88DE290E0F3D810924F
:101A30001E0160E082E00E948617009189012091DA
:101A40007701309178014091790150917A01073FF7
:101A500044F40F5FCA01B901A50194010E945F37E8
:101A6000F6CF00938901209377013093780140935A
:101A7000790150937A01073F09F090C0DA01C9015A
:101A800080569109A109B10980399545A105B10593
:101A900008F084C060918B0170918C01CB018B5652
:101AA0009F4F8B32914008F079C01F5F153008F4CA
:101AB00076C086E693E00E94FB380E943B0486E2F3
:101AC00090E0A8D880918B0190918C01D5D81EDC34
:101AD00088E088B989E087B980E284B982E059DB7F
:101AE000853D9340DCF714B8109232011092310119
:101AF00082E04FDB8C018091710190917201909393
:101B000032018093310182E044DB7C01EE0CFF1C4A
:101B1000109232011092310182E03BDBA090710102
:101B2000B0907201B0923201A0923101800F911FEA
:101B30008C010E191F090E948A048FE190E06AD877
:101B400088E693E00E94E038D82E9501D8010E94E3
:101B5000B23797010F2C000C440B550B0E948137B4
:101B600013E01D0D120F612F88E693E00E94ED38FF
:101B7000812F012E000C990B7FD8C8DB82E0809367
:101B80004201A1DB10923B018FE593E00E94E03817
:101B9000682F82E693E00E94ED3815C010E00E94A5
:101BA0008A04609177017091780180917901909118
:101BB0007A0104E026E44091890141D988E2B1DA52
:101BC000FA94F11027CF87E380932F010E94793098
:101BD0000E943B048EE091E01DD80E948A0488E5B3
:101BE00092E018D810921E0182E0809342016BDBD4
:101BF00003C082E0C82E1BCE2F96E2E10C94693818
:101C000080913B0181110DC08FE593E00E94E03887
:101C100061E0680F82E693E00E94ED3881E08093F6
:101C20003B010895EF92FF920F931F93CF93DF93A1
:101C3000D62FE82FF0E0E45BFE4FE491E8B9E860CE
:101C4000E7B915B8E62FF0E0E75BFE4FE491E4B9A1
:101C500088E8E82E83E1F82ECE2FCC0F8D2F8DDA79
:101C60008C01C4B98E159F0510F47801F7CF892B2C
:101C7000E9F00E9494048AE491E00E940A06D801E7
:101C800020EA36E841E050E00E94B83728E937EB17
:101C900040E050E00E945F37DA01C90122E041E4F0
:101CA00067EFB7D988E087B988B914B8CDB7DEB780
:101CB000E6E00C9475380F931F93CF93DF9385E084
:101CC00068DA85E062DAEC018C01000F111F000F69
:101CD000111F10923901C8018E54924089349D40E1
:101CE00050F088EB91E00E940A060E94C30581E053
:101CF0008093390125C087EC91E00E940A0662E0DA
:101D0000C8018A5C9E4F90D90E94B705C13683E016
:101D1000D80780F4C934D34050F48CEC92E00E9490
:101D20000A060E94C3058DECFCD98CDB09C083ED4B
:101D300092E002C084EC91E00E940A060E94C30572
:101D4000DF91CF911F910F910895A4E1B0E0EBEAEC
:101D5000FEE00C944D388B8B562E4983A895E62FC8
:101D6000F0E0E75BFE4F24912F87339634913A8B56
:101D7000E42FF0E0E75BFE4F44914C8BE42EEE0C39
:101D8000E82FF0E0E75BFE4FF490339654915A83CE
:101D900058605E873860432E45B9022F042B04B982
:101DA00057B98A8188B9862FF0D99D878C878C890D
:101DB0008E2985B91F851E2914B9852DE6D91C01E8
:101DC0009F8594B9852DE1D93C0114B894D915B8F3
:101DD00004B9852DDAD9EC85FD858E179F0720F58E
:101DE000805E9E4FE817F90708F4C9C447B888E039
:101DF00088B9F5B88C898F2984B9C0903301D09007
:101E000034018B89C2D99601281B390B3D872C8759
:101E1000F4B8C0903301D09034018B89B6D9160143
:101E2000281A390A310108C02C853D85205E3E4FB5
:101E30008217930708F4A3C42091520130916C01DA
:101E4000822F90E0830F911D02974CF0213009F012
:101E500096C490914F0180916901981390C44C856C
:101E60005D854437510508F4A4C0CA01880F991F45
:101E700044966816790608F09CC05E8557B98A8139
:101E800088B914B9852D7DD96C01898182D98C01DD
:101E9000E5B8852D76D99601295A3D4FEF282817A8
:101EA0003907D0F588E088B947B8E4B8E5B8898142
:101EB00068D988349F4028F085E080931E0182E233
:101EC00004C085E080931E0184E280931D01D092BE
:101ED0004801C09247010C151D0540F4C601801B46
:101EE000910B90934E0180934D0104C010924E01CE
:101EF00010924D019601A0E1B7E20E94A337209114
:101F000018013091190140E050E00E945F37309392
:101F10004A01209349012AC488E088B947B8E4B847
:101F2000E5B88B892ED98C01898133D96C01F5B83C
:101F30008B8927D9895A9D4F8017910708F01FC4B4
:101F4000FA81F8B92E8527B989811BD9813D934043
:101F500028F485E080931E0182E304C085E080932D
:101F60001E0184E380931D010C151D0538F4C01A71
:101F7000D10AD0926801C092670104C01092680132
:101F8000109267012091330130913401201B310BF5
:101F9000A0E1B7E20E94A33720911F0130912001F8
:101FA00040E050E00E945F3730936401209363016A
:101FB000BAC188E088B947B8F5B84C894F294E8333
:101FC00044B98B89E2D899878887C0903301D09033
:101FD00034018981DED89D838C830A9768F514B813
:101FE00081E09FD88E2D8F2984B98B89CED899878F
:101FF0008887C0903301D0903401F601E81BF90BBB
:10200000FB87EA878981C5D89D838C8320911F0136
:102010003091200140E050E060E871EA83E09CE10B
:102020000E945F37AA85BB850E94B837EC81FD818D
:102030009F0140E050E016C0960148855985241B59
:10204000350B3B872A878C819D81281B390BA4E6A1
:10205000B0E00E94A337EC81FD814F01A12CB12C8F
:10206000A50194010E945F3749015A0114B815B8BF
:10207000FA81F8B92E8527B981E053D839EB2316B8
:1020800037E0330608F07BC304B9852D7ED88F3541
:102090009D4008F44EC114B881E043D804B981E0F2
:1020A00040D814B9852D71D86C01898172D8998B6B
:1020B000888B8B896ED81C0188899989813D9740CE
:1020C00008F4C2C0E5B8852D5CD88115944068F04D
:1020D0008AE080931E0128893989221A330A3092B6
:1020E00062012092610181E008C484E080931E01B6
:1020F0008DE080931D016C147D0430F4A601461917
:1021000057095B834A8302C0DB82CA82809118012F
:10211000909119017C0100E010E060E871EA83E031
:102120009CE1A80197010E945F37AA81BB810E94B0
:10213000B837E889F9899F0140E050E00E945F3795
:1021400080916C01882369F080915D0190915E011E
:10215000A0915F01B091600182179307A407B507B2
:10216000F8F420935D0130935E0140935F0150933A
:1021700060019601A0E1B7E20E94A337A801970190
:102180000E945F3730936401209363012889398965
:10219000221A330A309262012092610181E001C06B
:1021A00080E040915D0150915E0160915F0170910E
:1021B0006001481559056A057B0538F580925D0177
:1021C00090925E01A0925F01B0926001888599852E
:1021D0004C815D81841B950B90936201809361011A
:1021E0002A853B85A0E1B7E20E94A33720911F0119
:1021F0003091200140E050E00E945F37205F384D71
:10220000309364012093630103C0882309F475C3EC
:102210009301A0E1B7E20E94A337A80197010E94B1
:102220005F3730936601209365012C853D85A0E1E1
:10223000B7E20E94A337A80197010E945F3730934D
:102240006801209367014FCF51E66516710408F0CD
:1022500070C081EDC81687E0D80608F46AC085E032
:1022600080931E0182E180931D01C60186509F4F1D
:102270008215930520F483E180931D011AC0C214D6
:10228000D30498F42091180130911901D101AC19AF
:10229000BD090E94A337960140E050E00E945F37DD
:1022A000309362012093610104C010926201109288
:1022B00061019A899770B92E8981806480937C002E
:1022C0000BE0CC24C394D12CEE24EA94A3E0FA2EA4
:1022D000A89561E08C8932D514B986B18B21E9F3D8
:1022E000EF85E4B980917A00806480937A008091D0
:1022F0007A0086FDFCCF809178009091790097015B
:10230000281B390BC20ED31E015011F7C601880FCE
:10231000991F880F991F69E070E00E943837709309
:1023200068016093670180916C018F5F80936C01FD
:10233000DACE04B93C8935B9852D0E94C5089D8344
:102340008C8389810E94C9089987888740913301CD
:1023500050913401481B590B4A30510548F514B8C7
:1023600081E00E94910814B9E5B8852D0E94C50846
:102370009D838C8389810E94C908998788872091D1
:1023800018013091190140E050E060E871EA83E003
:102390009CE10E945F37AC81BD810E94B8372091DB
:1023A00033013091340148855985241B350B09C010
:1023B0002C813D81241B350BA4E6B0E00E94A3379D
:1023C0009A0140E050E00E945F3749015A0147B846
:1023D00088E088B95E8154B955B98B890E94C508D7
:1023E0006C0189810E94C9089B878A87852D0E947C
:1023F000C9081C0180E3C81681E1D80608F0BCC1F9
:10240000F5B88B890E94C508998B888BF4B88B89A5
:102410000E94C5088C0115B881E00E949108F5B8AA
:102420008B890E94C5080034E6E01E0708F05AC0F8
:102430008133914108F456C0C6018A569F4F2889BE
:1024400039892817390708F04DC086E080931E01AE
:10245000809152018F5F809352018A859B858219FA
:1024600093099093480180934701C218D308D092F2
:102470004E01C0924D0114B815B83A8938B981E0BF
:102480000E949108F4B88B890E94C508853F910588
:1024900008F043C24E8144B989810E94C508813D3C
:1024A000934008F43AC28B890E94C9088D3D92403E
:1024B00008F433C2F4B88B890E94C5088D3D924060
:1024C00008F42BC2F5B881E00E94910815B88B89F9
:1024D0000E94C508853F910508F01FC287E08093E0
:1024E0001E011BC22E8124B925B981E00E949108EA
:1024F000EF28E4B8E5B88B890E94C5086C0100910B
:10250000330110913401081B190B89810E94C908FD
:102510009F838E832091330130913401A901481BA0
:10252000590B5B874A87852D0E94C9081C018A8543
:102530009B858E3F994008F4B1C084E080931E01D2
:102540008CE080931D016016710630F49801261905
:1025500037093B832A8302C01B830A8380911F01B2
:10256000909120016C01E12CF12C60E871EA83E08C
:102570009CE1A70196010E945F37AA81BB810E945E
:10258000B837EA85FB859F0140E050E00E945F3745
:1025900080915201882369F0809143019091440118
:1025A000A0914501B091460182179307A407B50792
:1025B000F8F4209343013093440140934501509334
:1025C00046018E819F8182199309909348018093DF
:1025D00047019801A0E1B7E20E94A337A701960145
:1025E0000E945F3730934A012093490181E001C086
:1025F00080E0409143015091440160914501709108
:102600004601481559056A057B0528F58092430166
:1026100090924401A0924501B09246018885998527
:102620002C813D81821B930B90934801809347013D
:10263000A0E1B7E20E94A33720911801309119015F
:1026400040E050E00E945F37205F384D30934A01F0
:102650002093490103C0882309F460C19301A0E1DC
:10266000B7E20E94A337209118013091190140E090
:1026700050E00E945F3730934C0120934B012C8532
:102680003D85A0E1B7E20E94A337A70196010E9411
:102690005F3730934E0120934D013FC131E6631601
:1026A000710408F069C009344DE0140708F464C0EF
:1026B00085E080931E0182E080931D01C101865058
:1026C0009F4F8C159D0520F483E080931D011AC057
:1026D0002C143D0498F420911F0130912001D60163
:1026E000A219B3090E94A337980140E050E00E946C
:1026F0005F37309348012093470104C0109248018E
:10270000109247015A815770C52E89818064809349
:102710007C007BE0D72E01E010E0A89560E08C897A
:102720000DD3E4B8E5B886B18C21E9F7F4B880910F
:102730007A00806480937A0080917A0086FDFCCFD5
:102740008091780090917900080F191FDA94D110C8
:10275000E4CFC801880F991F880F991F69E070E0C6
:102760000E94383770934E0160934D018091520161
:102770008F5F80935201D1C088E087B988B914B8BF
:1027800015B888E087B997EC691691E0790608F4E6
:10279000A8C088B918EC0E85042907B981E00E9409
:1027A000910847B88B890E94C908429710F01150D0
:1027B000A1F76F84660C7F2C770C74B875B861E054
:1027C0008C89BCD28B890E94C5088C0164B815B86D
:1027D000EE85E7B9FA81F8B960E08C89AFD2A090B4
:1027E0003301B0903401852D0E94C5086C012F85FE
:1027F00024B98B890E94C5084C01852D0E94C90807
:10280000881A990A88E088B947B8F4B8F5B861E041
:102810008C8994D28B890E94C5087C01852D0E94E9
:10282000C908E81AF90A8E149F0438F474B875B808
:102830008B890E94C508470117C085010C191D0925
:1028400064B815B83E8537B94A8148B960E08C89CB
:1028500075D2E0903301F0903401852D0E94C508B7
:10286000F701E81BF90BCF019401275931092938E9
:102870003141B8F588159905A0F5C80153E0969542
:1028800087955A95E1F7893C910510F088EC90E026
:10289000800F911F8815990520F5C40144E0969595
:1028A00087954A95E1F780179107D8F480911E012A
:1028B000833018F483E080931E0120911C01822F45
:1028C00090E0FC01E357FE4F3B8930835682880F2E
:1028D000991FFC01E756FE4F918280822F5F209363
:1028E0001C01652D8B892AD088E087B988B914B876
:1028F00015B86496E2E10C94693890916C019F5F81
:1029000090936C01882381F349814093690150922F
:102910006A015B8950936B01E7CF81E0909152018E
:102920009F5F909352018823F9F2898180934F0130
:102930009B899093500150925101D6CFA0E0B0E016
:10294000E4EAF4E10C944F38A895E62FF0E0E75B59
:10295000FE4F549033969491E82FF0E0E75BFE4FE2
:10296000C4903396D49040916C012091520130E094
:10297000240F311D232B09F0DCC1D62FC82FA895B9
:102980002091220130912301220F331F220F331F88
:102990003093340120933301209171013091720101
:1029A000220F331F220F331F309332012093310146
:1029B0008EEB80932F0188E088B9E92FE860E7B9B2
:1029C000C4B8C5B808E1B02EE12CF12C8D2F0E94BF
:1029D000C508782E692E8C2F0E94C9088C018E198B
:1029E0009F0997FF03C0919581959109039734F052
:1029F000A895BA947801B110E9CF30C0FC2CFF0C37
:102A000015B8F4B88C2F0E94C5088135910530F5B2
:102A1000F5B88C2F0E94C5087C018D2D886087B980
:102A2000D8B815B854B8A8E14A2EC12CD12C8C2F97
:102A30000E94C508982E892E8D2F0E94C9085C011E
:102A40008C199D0997FF03C0919581959109039772
:102A5000CCF0A8954A9465014110E9CF80912201FC
:102A600090912301909334018093330180917101FF
:102A700090917201909332018093310187E38093AA
:102A80002F0157C1550C54B88D2F0E94C5086C01F9
:102A9000003C84E4180730F425E8E21621E0F20651
:102AA000E8F605C080EBE8168DE4F806B8F624EAEF
:102AB000A21622E0B20608F06DC088E9C816D1045B
:102AC00068F200913301109134019701A8E9B7EB46
:102AD0000E94A33798012E193F0940E050E00E9460
:102AE0005F3749015A0198012C193D09A8E9B7EB54
:102AF0000E94A337860120E030E0A90198010E94DE
:102B00005F3788E7E8168FE0F80680F4D501C40146
:102B1000F2E0880F991FAA1FBB1FFA95D1F7BC01DD
:102B2000CD01620F731F841F951F14C088E7C8165C
:102B30008FE0D806B0F4DA01C901E2E0880F991FEE
:102B4000AA1FBB1FEA95D1F7BC01CD01680D791D05
:102B50008A1D9B1D25E030E040E050E00E945F3779
:102B60000CC0D501C401820F931FA41FB51F9C0187
:102B7000AD015695479537952795A4E6B0E00E949C
:102B8000B8376B017C012CEAC20E2DE0D21EE11C8D
:102B9000F11C76C0872D962D0817190708F4C80177
:102BA000E92CF82CEA14FB0408F47501081719073E
:102BB00008F48C0120911F0130912001D801A81B3D
:102BC000B90B0E94A3372091330130913401201BAF
:102BD000310B40E050E00E945F3729013A01EA14CE
:102BE000FB0408F457012091180130911901D70115
:102BF000AA19BB090E94A3376501E12CF12CA7019A
:102C000096010E945F3708378FE0180780F4D301E0
:102C1000C20162E0880F991FAA1FBB1F6A95D1F7F6
:102C2000BC01CD01620F731F841F951F14C088E77C
:102C3000A8168FE0B806C0F4DA01C90132E0880FA7
:102C4000991FAA1FBB1F3A95D1F7BC01CD01640D96
:102C5000751D861D971D25E030E040E050E00E9484
:102C60005F3769017A010CC0D301C201820F931F43
:102C7000A41FB51F6C017D01F694E794D794C79407
:102C800010911E01143008F0E9CEC1500C2F0D0F29
:102C9000202F30E0E901C95ADE4F8881220F331F0F
:102CA000220F331FF901EA55FE4F8823D9F18080A6
:102CB0009180A280B380A7019601281939094A0999
:102CC0005B0957FF07C050954095309521953F4FC0
:102CD0004F4F5F4FAAE0B0E00E94B83724E6820E63
:102CE000911CA11CB11CA50194012C0D3D1D4E1D74
:102CF0005F1D0E945F37232B242B252B09F0AECEBE
:102D0000133019F081E080931E0182E08883809166
:102D10007301E82FF0E0E65AFE4F00838F5F809347
:102D200073019CCEC082D182E282F38281E08883EB
:102D300095CECDB7DEB7E0E10C946B38CF93C82FBA
:102D4000C09595B160FF02C0982B01C09C2395B936
:102D500094B1892B84B982E00E94910884B18C23BC
:102D600084B985B1C823C5B9CF910895A0E0B0E07A
:102D7000ECEBF6E10C9455381AE008E08FE3C82E2E
:102D800099E0D92E07B908B915B8C4B880E00E94F7
:102D9000C5087C0181E00E94C908EC0182E00E9424
:102DA000C9089C0180911E01893081F488E087B9AF
:102DB00014B8F0920601E0920501D0930801C09387
:102DC000070130930A01209309015BC084E0E816F3
:102DD000F10440F4C430D10560F42430310530F3FF
:102DE00099E00BC088EEE81683E0F80610F098E052
:102DF00001C099E0C83ED34008F49260283E3340B9
:102E000008F4946097B9C0E0D0E0A89580E00E94F3
:102E1000BD085C0181E00E94C9087C0182E00E943B
:102E2000C90824E1A21625E0B20608F4389A24E184
:102E3000E21625E0F20608F4399A843125E092077B
:102E400008F43A9A26E0A216B10430F426E0E2161D
:102E5000F10410F4069738F02196C43F81E0D807BA
:102E6000A1F6D0921E01E12CF12CEC16FD0631F0FA
:102E70000E9480082FEFE21AF20AF7CF115009F0F2
:102E800081CFCDB7DEB7EAE00C947138CF92DF92F4
:102E9000EF92FF92CF93209177013091780140918A
:102EA000790150917A01C09189018AE0C82ED12C14
:102EB000E12CF12C8C2FCF5F213A96E8390791E075
:102EC0004907510538F0CA01B901A70196010E94CE
:102ED0005F37F0CF80938901A0913301B091340125
:102EE0000E94B83728E833E140E050E00E945F37A5
:102EF00020937701309378014093790150937A01C0
:102F0000CF91FF90EF90DF90CF900895A0E0B0E0D8
:102F1000ECE8F7E10C945338982F990F980F2FEFA6
:102F2000260F920F90935401E82FF0E0E75BFE4FDD
:102F30001491262F30E0F901E75BFE4FF490F90180
:102F4000E45BFE4FD49190911E01913009F4A1C22F
:102F500020911C01ADE8B1E0FD0190E0921791F0E5
:102F6000368163130BC03081831308C01C964D91CA
:102F70005C911D974C3D554008F48BC29F5F319684
:102F80001296ECCF062FC82FD860109284011092B1
:102F9000830181EF8093890110927701109278016B
:102FA0001092790110927A01E1DE88E088B9D7B9F0
:102FB000F4B8F5B88C2F0E94C9085C01802F0E94DC
:102FC000C908A81AB90A14B81092560110925501EE
:102FD0008091550190915601843F914008F0AAC01C
:102FE00015B914B90E947A0814B815B80E9481085E
:102FF000A8958C2F0E94C9087C01EA18FB088091D3
:103000005501909156018E37910528F08BE4E81612
:10301000F1040CF48FC080915501909156012DE27E
:10302000E21621E0F20634F4019690935601809363
:103030005501CECF892B09F0A4C185E1E81685E0C2
:10304000F8060CF49EC192DE15B88FE087B988E0CF
:1030500088B9F12EFF0CF4B880E480937B0084E5FE
:1030600080BF8C2F806480937C0086E180937A00FF
:103070000E9484081092560110925501109280000F
:10308000109285001092840087E286BB81E28093D3
:103090006F0081E080937401F5B890911E018093D8
:1030A0008100953009F04CC081E090E00C2E01C009
:1030B000880F0A94EAF780958F7087B9F89483B7E0
:1030C000817F83BF80917401882389F083B78160F9
:1030D00083BF7894889583B78E7F83BFF894A89533
:1030E00080915501909156018034964059F778941B
:1030F00010928100E0908600F090870010926F009F
:1031000086E980937A0014B815B88C2F0E94C908FC
:103110002091370130913801821B930B0C969093CC
:103120008C0180938B0180915501909156018032E2
:10313000934040F088E087B988B914B815B8A9C1A0
:10314000D7B9BCCF809155019091560190938201DF
:1031500080938101F0928001E0927F0184EF80935F
:103160008901809155019091560182349105C8F0F2
:1031700060917F0170918001809181019091820125
:1031800024E630E040E050E00E945F3720937F016A
:1031900030938001409381015093820186EF8093A8
:1031A0008901A0917501B091760120917F01309144
:1031B000800140918101509182010E94B83720E244
:1031C00033E040E050E00E945F3720937F0130936E
:1031D00080014093810150938201209377013093C5
:1031E00078014093790150937A0150DE80918901F2
:1031F000843F09F071C0C0907701D0907801E090D1
:103200007901F0907A0180EAC8168FE0D806E104CF
:10321000F104C0F4A70196012C543F4F4F4F5F4F6C
:1032200060EA7FE080E090E00E945F37C20ED31E2C
:10323000E41EF51EC0927701D0927801E0927901E8
:10324000F0927A01C0907701D0907801E0907901F6
:10325000F0907A01C114D10421E0E206F10428F4CF
:10326000D092B701C092B60106C081E090E0909381
:10327000B7018093B6018091540190E0815A9C4F30
:103280000E94E03890E0A0E0B0E0B701A6018C1504
:103290009D05AE05BF0568F4481B590B6A0B7B0BF7
:1032A00040937701509378016093790170937A018C
:1032B00013C04C5E5F4F6F4F7F4F481759076A0727
:1032C0007B0710F40E94000E109277011092780193
:1032D0001092790110927A0114B98091770190913E
:1032E0007801A0917901B0917A014997A105B105C2
:1032F00008F420CFC12CD12C80911C01882329F007
:1033000080911E01853009F015CF88E080931E0161
:103310008091890190918A019817C4F089130ACF8E
:103320008090770190907801A0907901B0907A0117
:1033300040917B0150917C0160917D0170917E01F3
:10334000481559056A057B0508F0F4CE40917701D0
:10335000509178016091790170917A0140937B01DD
:1033600050937C0160937D0170937E0180938A016C
:10337000D0928601C092850100938701C093880195
:10338000D9CEC701C12CD12C2091550130915601C5
:103390002C153D0560F00E947B088C2F0E94C90807
:1033A0008A199B09A8952FEFC21AD20AEDCF5701AF
:1033B000A81AB90A1A141B049CF439ECA316B10418
:1033C0000CF0B8CE28EE33E0D5010E94B237970159
:1033D0000F2C000C440B550B0E945F37690102C093
:1033E000C12CD12C80915501909156010196A0E0FD
:1033F000B0E080937F0190938001A0938101B0930E
:103400008201C7018A0D9B1D91D020917F013091CF
:1034100080014091810150918201DC010E94B83706
:1034200060937F017093800180938101909382016A
:1034300060937701709378018093790190937A017A
:1034400087EF8093890122DD809077019090780149
:10345000A0907901B0907A0182E493E00E94E03874
:10346000A8EEB3E0A81BB10987FDB395A5019401AF
:103470000E94C23724E630E040E050E00E945F370F
:1034800020937701309378014093790150937A012A
:1034900033CFCDB7DEB7ECE00C946F381F920F92AC
:1034A0000FB60F9211248F939F93B59904C080910A
:1034B0007401811109C0B59B10C080918600909164
:1034C00087008A3F910548F48091550190915601FB
:1034D000019690935601809355019F918F910F9083
:1034E0000FBE0F901F9018951F920F920FB60F925C
:1034F00011248F939F9310927401B09B10C0809100
:103500008600909187008A3F910548F4809155018B
:1035100090915601019690935601809355019F9189
:103520008F910F900FBE0F901F9018950F9221E072
:103530008C32920710F48CE291E08C52914069E158
:1035400070E00E94383799E16B3210F0982F6BE2EF
:10355000981BE3EEF2E0E60FF11DE60FF11D9F93DD
:10356000CF010E94E038482F3196CF010E94E03809
:10357000582F3196CF010E94E038282F3196CF0185
:103580000E94E038382F6F91421B530B649FC0019B
:10359000659F900D11240C9669E170E00E94383708
:1035A000620F731FCB010F900895A0E0B0E0EBED28
:1035B000FAE10C94533888E893E1909323018093C7
:1035C000220190933401809333018EEB80932F017D
:1035D000C8E0C8B988E187B90E948908C7B984E002
:1035E0000E94C508AC018B5C9840833F9140A0F4D9
:1035F00081E080933E012091330130913401AFEBA3
:10360000B9E00E94A3379A0140E050E00E945F3782
:103610003093230120932201809122019091230174
:1036200090933401809333018EE00E94C9088EE0AC
:103630000E94C50890933801809337010E94860943
:1036400095DB88E0F82EF8B8C9E0C7B985E185B9FF
:10365000DD24D394D4B880E00E94C5088C01DAE060
:10366000D7B994E0892E84B881E00E94C508080F7C
:10367000191F2CE0E22EE7B830E1932E94B882E0D7
:103680000E94C508080F191F15B8C8B9C7B9D4B822
:10369000C0903301D090340180E00E94C5085C01E5
:1036A000D8B9D7B984B8C0913301D0913401CC0DC9
:1036B000DD1D81E00E94C5086C01E8B8E7B894B848
:1036C0008091330190913401C80FD91FCA19DB09C9
:1036D00082E00E94C508CC19DD09C81BD90BF7B8D8
:1036E000F8B814B820913301309134016901CC0C41
:1036F000DD1CC20ED31EC01AD10ACC1ADD0AE12C81
:10370000F12C9801A0E9BAE10E94A337A701960124
:103710000E945F3749015A0130933D0120933C01DB
:103720009E01A0E9BAE10E94A337A70196010E9479
:103730005F3730933601209335012057354E309353
:10374000200120931F0180E7881A85EE980A909245
:1037500019018092180187E380932F01CDB7DEB75E
:10376000ECE00C946F38CF92DF92EF92FF920F93C0
:10377000CF93DF93F82ED62FC42F0E94B40581E299
:1037800091E00E940A06F2D16D2F8F2D0E94FA2E31
:10379000C090BA01D090BB01E090BC01F090BD0197
:1037A0008091020187FD05C0C114D104E104F10438
:1037B00021F08DE191E00E940A068D2F0E94B40550
:1037C000C114D104E104F104A1F10E94B705809174
:1037D0005A010E94B206CC2309F47EC080913F01B9
:1037E000823128F490E08D599C4F0E940A0680E0B7
:1037F0000E94E305CD28CE28CF2801F16091BA01BF
:103800007091BB018091BC019091BD0103E028E45F
:1038100047EF0E941F0780E391E00E940A0689E7B4
:1038200093E00E94E83823E046E464EF0E94090830
:103830001FC0C111D3CF80E00E94E30580915A01DF
:103840000E94B206809102018E3F94F48EE491E0D2
:103850000E940A0660910B0170910C0180910D018C
:1038600090910E0103E028E4409102010E941F079D
:103870008091B2019091B301A091B401B091B501D2
:10388000892B8A2B8B2BF1F080E00E94E30560915D
:10389000B2017091B3018091B4019091B50104E03F
:1038A00028E440E00E941F078BE291E00E940A0694
:1038B00023E040E26FEF8091B8019091B9010E943E
:1038C000090807C080E00E94C9058091420181116A
:1038D00007C00E94C30504C080E00E94E3058ECFAC
:1038E000DF91CF910F91FF90EF90DF90CF900895EF
:1038F000EF92FF920F931F93CF93DF93182F0E94A5
:103900003404809187010E94B4058AE691E00E9408
:103910000A060CD560918701809188015FD3EC0184
:103920009093840180938301E0908501F09086015B
:10393000CA3F8FEFD80720F482E291E00E940A0686
:10394000809188010E94B405112359F090913F01A4
:1039500082E1891B0E94BA0582E890E00E940A0673
:1039600002C00E94C3050E948A0460917B0170918D
:103970007C0180917D0190917E0104E026E44091DC
:103980008A010E941F07CA3FDF4F68F489E591E072
:103990000E940A0622E044E06EEF8091830190913C
:1039A00084010E9409080E94C3050E948F04E1144B
:1039B000F10469F082E591E00E940A0622E045E206
:1039C0006FEF80918501909186010E9409080E9405
:1039D000C305CDB7DEB7E6E00C9475388F7021F4DF
:1039E0000E9494040C945B0E08958F3021F4909102
:1039F0003901913011F08F5F089580E00895CF93E1
:103A00008DE890E00E948C28C0E00E94FF0960E0F1
:103A100082E00E949E1462E080E00E949E140E9458
:103A2000340480917301882329F041E062E080E052
:103A30009ADE12C08DE890E00E940A068DE693E0BF
:103A40000E940A060E948A048FE30E946B0580E0B0
:103A50000E94C9050E94C3058C2FC0DF88EE93E049
:103A60000E942709811105C08C2FBFDFC82F8A3F14
:103A700060F20E943B04CF9108950F931F93CF9360
:103A8000DF93C0E0D8E012EF02E10E94FF0960E09E
:103A900082E03CDAD0931E0180918901843FE1F4F9
:103AA0008091770190917801A0917901B0917A018C
:103AB00084369105A105B10578F440E060E082E02C
:103AC0000E94902C60937701709378018093790124
:103AD00090937A011093890180918901823FACF023
:103AE00080938A018091770190917801A09179016A
:103AF000B0917A0180937B0190937C01A0937D012A
:103B0000B0937E0181E0F4DE1CC00E94340486E89C
:103B100090E00E940A0680913F01902F981B892F08
:103B20000E94BA0582E890E00E940A060E948A0478
:103B30008FE30E946B050E94C3050E948F040E94C0
:103B4000C3058C2F4BDF88EE93E00E94270981117B
:103B500006C08C2F4ADFC82F8A3F08F496CF0E94F8
:103B60003B04DF91CF911F910F910895A4E1B0E044
:103B7000ECEBFDE10C944D3882E0809302018091E2
:103B80001E01813009F026C280917301813009F055
:103B900021C200915A0124E0029FF0011124EA554C
:103BA000FE4F80819181A281B381893032E59307F4
:103BB000A105B10508F00EC24C0110E0802F1230B3
:103BC00028F40E94A806582E492E03C00E94A80679
:103BD0002C01E42DF0E0E45BFE4F2490852D90E075
:103BE000FC01E75BFE4FE49115B828E028B930EFFF
:103BF00083169104B8F410FD15C0A0901801B09080
:103C0000190120E9A21A2AE1B20A21E030E0052CCC
:103C100002C0220F331F0A94E2F7C901886082298B
:103C200087B908C0E4B9822D886087B9A0901801CF
:103C3000B0901901F4E13F2E852D0E94C1083C018E
:103C4000842D0E94C90834E06316710410F40497AF
:103C500018F03A943110F0CF80E480937B0094E523
:103C600090BF852D806480937C0026E120937A00AC
:103C7000E12CF12C109280001092850010928400AB
:103C800087E286BB0E948408312F3170332E10FDED
:103C900005C081E88093810028B808C028B80E9438
:103CA0008D0880E286BB81E88093810086B385FF22
:103CB00013C098E098B91092810020E226BB2091B1
:103CC0008600309187006901409184005091850001
:103CD0002417350770F014C080FFE8CF31E036BB01
:103CE000A89597012F5F3F4F790120353105F1F6F7
:103CF000E0CF80FF05C081E086BB9FEFE91AF90A9B
:103D000086E980937A00E4E12E2E852D0E94C10879
:103D10003C01842D0E94C90824E06216710410F44D
:103D2000049718F02A942110F0CF40903C01509055
:103D30003D01480C591C4A0C5B1C20911A01309122
:103D40001B0180E9A8168AE1B806B0F491EEC91605
:103D5000D104E104F10438F4C60165E070E00E948A
:103D60003837645101C069E128523109261B3109F5
:103D700067FD339586E009C0C20160EB76E30E94DF
:103D8000383787E0860F285D3F4F90E0A0E0B0E035
:103D90008C159D05AE05BF0528F4C81AD90AEA0A94
:103DA000FB0A03C0C12CD12C7601332029F082E21A
:103DB000C80ED11CE11CF11C90E5E916F10418F0C5
:103DC000C12CD12C76018BE0C816D104E104F1049A
:103DD00028F091E0C91AD108E108F10840913301B7
:103DE00050913401612C712CA8EEB3E00E94A337EE
:103DF000698B7A8B8B8B9C8B9501DA010E94A337A0
:103E0000A30192010E945F374427552769897A8967
:103E10008B899C890E945F37C9010E94DE09FC01E1
:103E2000A3019201C701B6010E941D372B013C017D
:103E3000CF01A0E0B0E073E0880F991FAA1FBB1F5D
:103E40007A95D1F7BC01CD016B5F7F4F8F4F9F4FAC
:103E50002AE030E040E050E00E945F37C301B20149
:103E60000E945F37E12FF0E0A1E0B0E0AC0FBD1F92
:103E700084E0189FA00DB11D11242D933D934D9307
:103E80005C931397311016C09CE0C916D104E1046D
:103E9000F10480F03196EE0FFF1FEE0FFF1F81E05F
:103EA00090E08C0F9D1FE80FF91F20833183428320
:103EB00053831F5FA8951F5F143008F47FCE88E0FE
:103EC00088B984E00E94910891E00D811E812F81C4
:103ED000388549815A816B817C814017510762077F
:103EE000730708F090E00D851E852F853889498578
:103EF0005A856B857C85401751076207730710F45C
:103F000083E001C082E0E92FF0E0EE0FFF1FEE0F2B
:103F1000FF1F21E030E02C0F3D1FE20FF31FD901FE
:103F200034E0839FA00DB11D11240D911D912D91A1
:103F30003C914081518162817381041715072607E6
:103F4000370708F0892FE1E0F0E0EC0FFD1F94E067
:103F5000899FE00DF11D112440815181628173819F
:103F600040930B0150930C0160930D0170930E016F
:103F700080FD08C020EF8216910420F48BEF80931F
:103F8000020117C08CEF80930201CB01BA016B5F75
:103F90007F4F8F4F9F4F2AE030E040E050E00E947B
:103FA0005F3720930B0130930C0140930D01509328
:103FB0000E0180910B0190910C01A0910D01B09127
:103FC0000E01892B8A2B8B2B11F41092020188E0B1
:103FD00087B914B86496E2E10C946938AEE1B0E0B8
:103FE000E4EFFFE10C944D38662EB82E860F8983DE
:103FF00020911E01283059F520917B0130917C01E0
:1040000040917D0150917E0157FD15C010918A01AC
:1040100009C0CA01B9012AE0312D412D512D0E945C
:104020005F371F5F173FACF391F4243160E0360730
:104030004105510518F48FEF9FEF45C1173F39F443
:1040400080E028178DE738074105410510F020E092
:104050003DE72C8B3D8B26EDA22EECE4F1E0E60D46
:10406000F11D859188608E87ECE4F1E0EB0DF11D88
:10407000859188608F87E9E4F1E0E60DF11D759088
:10408000E9E4F1E0EB0DF11DC59090EC692AB92A45
:1040900081E0E82EF12C012D112D8E831F821886D0
:1040A00019861A861B861C861D86188E198E1B8EF5
:1040B0001A8E0E94B61688E088B960927C000E9431
:1040C00085083F8537B975B874B852E05A95F1F74D
:1040D0000000000014B815B8DD243E8537B975B866
:1040E00074B860927C00A895A0927A0080917A00C2
:1040F00086FDFCCF2090780030907900B0927C0053
:104100004C2DE5D02091780030917900288B398BA7
:104110003F8537B9C5B8C4B8A895B0927C00A092C5
:104120007A0080917A0086FDFCCF609178007091D2
:10413000790060927C00472DCAD040917800509160
:10414000790014B8CB01820D931DE80EF91E011DF4
:10415000111DEA82FB820C831D8388899989840F53
:10416000951F2E813F8168857985280F391F611D34
:10417000711D2E833F836887798722E324171506F4
:1041800050F075B874B80E948F0814B815B8888DAF
:104190008395888F07C0483E73E0570718F08A8DD3
:1041A00083958A8F888999892817190660F03E853A
:1041B00037B9C5B8C4B80E948F0814B815B8898D2E
:1041C0008395898F07C0883E73E0970718F08B8D21
:1041D00083958B8FD3945D2D5F3F49F05F3731F42A
:1041E0005C2D550FC50E572D550F750E76CF40908F
:1041F0003C0150903D01440C551C9201E4E0240D1B
:10420000351DEA95E1F72901570168016E807F802D
:104210008884998420911E012830C1F46C897D899D
:10422000812D912D65507040804090409B01AC01E4
:104230000E941D379B01AC0160E779E786E190E0C1
:104240000E945F37621A730A840A950AA614B7049B
:10425000C804D90428F46A187B088C089D0803C098
:10426000662477244301B20180E090E09301A40129
:104270000E941D379501A6010E945F378EE393E0EF
:104280007981870F911D0E94E038682EC90160E195
:1042900070E00E943837260F371FC90168161906CB
:1042A00018F4861991090FC08C5E9F4F86159105F1
:1042B00040F48C899D89843981E1980710F00E942F
:1042C000000E812D912D6E96E2E10C9469381092CA
:1042D00081001092800010926F0010928B0010925B
:1042E0008A0057E056BB5FEF5093850050938400DF
:1042F00055E050937B0056EB50937A0051E0509379
:10430000810058E25A95F1F7000045B944B955E0EB
:104310005A95F1F7000014B815B8109281008091F9
:104320007A0084FFFCCF80937A000895A0E0B0E08B
:10433000ECE9F1E20C94533880918501909186016B
:10434000892B09F09EC0E0918701F0E0E45BFE4F0D
:10435000D491D860E0918801F0E0E75BFE4FC49112
:104360000E94B61688E088B915B8D7B9C4B980914B
:1043700088010E94C9088C01D0918A018CE08D0FC0
:10438000843008F07EC080917B0190917C01A091E7
:104390007D01B0917E01D15F2AE0822E912CA12C6B
:1043A000B12CBC01CD016B5F7F4F8F4F9F4FA5019B
:1043B00094010E945F3769017A01DA01C901DF5F68
:1043C000D73079F729E8C21623E1D206E104F104D7
:1043D00008F057C0059708F454C0C5B9C4B9C0E087
:1043E000D0E0CC15DD0520F40E948B082296F9CF91
:1043F00014B815B8A89585E080932F0180918801A5
:104400000E94C9080817190720F4EC01C01BD10B42
:1044100002C0C0E0D0E0A12CB12CAC14BD0430F43B
:104420000E948B088FEFA81AB80AF7CF80918801F5
:104430000E94C90827E320932F01A89508171907A0
:1044400018F4801B910B02C080E090E08C179D0750
:1044500088F49E01281B390B69F0A4EFB1E00E949B
:10446000A3379E0140E050E00E945F373093860101
:10447000209385010E94B61688E087B988B914B8E0
:1044800015B8CDB7DEB7ECE00C946F38A7E0B0E01C
:10449000ECE4F2E20C944D3888E392E03DD620EF54
:1044A0002B8354980E94800814BC16BC10921201F1
:1044B00010921301109214011092150131E035BBD6
:1044C00030936E001092800083E19AE790938B0006
:1044D00080938A00E1E0F0E0F0938900E0938800A7
:1044E000109285001092840083B5816083BDF6E050
:1044F000F6BBF0936F00789424E02093810032E3C0
:1045000039831A820E947908A8954F9902C061E008
:104510006A8385B5811127C015BC86B580931201C9
:104520000E948F040E94C3050E9494040E94C30548
:104530000E94EA0586E60E946B050E94EE056091E6
:10454000120170911301809114019091150147E0BF
:104550000E941E08549880918100882351F08FE3B7
:104560000E946B0506C08981815089838111CACF61
:10457000D3CF1092810010926F00209112013091E0
:1045800013014091140150911501DA01C9010197FD
:10459000A109B109893D9146A105B10508F00BC1FA
:1045A000AAE0B0E00E94B837DC01CB010896A11D5B
:1045B000B11D23E0B695A795979587952A95D1F7D4
:1045C000BC01660F771F70936E0160936D01549864
:1045D0000E94800816BC10921201109213011092D2
:1045E000140110921501F1E0F5BBF0936E001092EA
:1045F000700110926F0124E02BBB809168008460F1
:1046000080936800789480916D00806180936D0044
:1046100019820E947908A8954F9902C031E03A8327
:1046200080916D0084FF05C069816F5F69836A3F77
:1046300081F715BC80916D008F7E80936D00809115
:1046400068008B7F8093680086B5809312010E947A
:104650008F0484E50E946B050E94EE0560911201B3
:10466000709113018091140190911501E0916D01F9
:10467000F0916E01FD83EC8328EA31E640E050E0E2
:104680000E94C837EC81FD81612C712C43015F01D0
:10469000C12CD12CE12CF12C00E010E00E94F1376C
:1046A00049014F835E831B012C012C813D81203801
:1046B000310530F007E023E745EFB4018F8117C0E3
:1046C00084E6A82EB12CC12CD12CE12CF12C00E0D9
:1046D00010E094014F815E81C2010E94F137F22FF8
:1046E000E42F07E023E747EF6F2F732F8E2F952FCF
:1046F0000E941F0739813A3F21F48FE30E946B0526
:104700005AC094014F815E81B101C2012C393E4CE7
:1047100043405105610571058105910509F008F4D3
:104720004AC00E94940486E60E946B050E94EE0532
:1047300094014F815E81B101C20154012115FAEC4F
:104740003F07FAE94F07FBE35F0761057105810544
:104750009105A1F098F06A017101820120E030E03A
:104760004AE85DE568E775E483E691E00E94F13789
:10477000F22FE42F07E028E44AEF13C0CF80DE8059
:104780007101820120E030E846EC54EA6EE77DE8F2
:1047900083E090E00E94F137F22FE42F07E028E455
:1047A0004CEF6F2F732F8E2F952F0E941F078AE7D4
:1047B0000E946B05549810926E0080ED97E00E9465
:1047C00027092A81820F29F43B8131503B83311123
:1047D00068CE2796E2E10C9469381F920F920FB6CB
:1047E0000F9211248F939F93AF93BF9378948091EE
:1047F000120190911301A0911401B09115019F5FD6
:10480000AF4FBF4F8093120190931301A0931401F7
:10481000B0931501BF91AF919F918F910F900FBEF3
:104820000F901F9018951F920F920FB60F921124A0
:104830008F9386E085BD8F910F900FBE0F901F90D4
:1048400018951F920F920FB60F921124A8951092EF
:10485000810015BC0F900FBE0F901F9018951F92EE
:104860000F920FB60F9211242F933F938F939F9324
:1048700080916F0190917001892B11F481E085BDC9
:1048800020916F013091700180916D0190916E01C6
:104890002817390730F015BC80916D008F7E80930A
:1048A0006D0080916F01909170010196909370015D
:1048B00080936F019F918F913F912F910F900FBE29
:1048C0000F901F9018958D3008F08D50811103C006
:1048D00082E492E03BC0813019F488E392E036C074
:1048E000823019F48FE092E031C0833019F484E013
:1048F00092E02CC0843019F488E990E027C085301C
:1049000019F48DE890E022C0863019F486E890E032
:104910001DC0873019F483EF91E018C0883019F476
:1049200084EE91E013C0893019F480E392E00EC068
:104930008A3019F48DEC91E009C08B3019F486E2CD
:1049400092E004C08C3021F48BE192E00E940A06D0
:104950000C94C30508950F93CF9388E990E0DCD3BE
:10496000C0E010921E0160E082E0EBD380911E0156
:104970008830C1F50E948A0483E40E946B050E947E
:10498000EE0560917B0170917C0180917D01909199
:104990007E0103E026E440918A010E941F070E94E5
:1049A000C305609187018091880118DB9093840191
:1049B000809383010E948F048AE591E00E940A0699
:1049C00080918301909184018A3F2FEF920730F408
:1049D00022E044E06EEF0E94090808C08FE30E94C5
:1049E0006B0504C00E94EA050E948F040E94C30563
:1049F0008C2F0E94EE1C88EE93E00E942709811103
:104A000007C08C2F0E94F51CC82F8A3F08F4A9CF3D
:104A1000CF910F9108951F93CF93DF9380E392E09E
:104A20007BD3C0E0D0E01AE00E94E6050E942F048C
:104A30000E942F0484E491E00E940A0686E00E940E
:104A4000C50863E09C01129FC001139F900D1124C3
:104A50000E9414080E94EA050E942F0484E491E059
:104A60000E940A0687E00E94C50863E09C01129F2D
:104A7000C001139F900D11240E9414088C2F0E94D6
:104A8000EE1C88EE93E00E942709882339F08F35C9
:104A900008F0DF5FD53050F4C0E001C0D0E08C2FCB
:104AA0000E94F51CC82F803F08F4BECFDF91CF9144
:104AB0001F910895A4E0B0E0E0E6F5E20C944D38D3
:104AC0008FE092E029D380E18093800010926F0004
:104AD00081E090E0909389008093880010928B0091
:104AE00010928A0083E086BB1092820088E0809357
:104AF000810015B891E194B988B989E087B9229A03
:104B000080938100312C20E0FAE02F2E31E03B83AE
:104B1000812C912C5401839441E14C83832D90E0AE
:104B20000A966EE170E00E944C376A83062F621786
:104B300081F00E9434048FE092E00E940A0610E0A7
:104B4000101728F48EE20E946B051F5FF9CF0E94B8
:104B5000C3055C815231B8F0C701B601A5019401CB
:104B60000E945F376B017C018B81622D0E942C3784
:104B7000A92FB0E0A50194010E94B837C60ED71E38
:104B8000E81EF91E0CC08B81622D0E942C37A92FC4
:104B9000B0E0A50194010E94B8376B017C010E942E
:104BA0008A048B81821109C081E09C81923108F4D2
:104BB00080E08983811107C001C019822C812631D0
:104BC00020F082E503C08CE301C08EE30E946B05F8
:104BD0000E94B7054C81C701B6010E941E08C7019B
:104BE000B6017E5E85489F4FA7019601220F331FB5
:104BF000441F551F0E945F37CA014F3F510539F0CE
:104C000030F08DE08093810080E094E01FC040345C
:104C1000510530F08CE08093810080E091E016C077
:104C20004830510530F08BE08093810080E490E0C3
:104C30000DC0892B31F09AE09093810088E090E0DC
:104C400005C089E08093810081E090E02C01612C17
:104C5000712CCA01B901A30192010E945F37215052
:104C600031093093890020938800809188009091C9
:104C70008900892B31F421E030E0309389002093C2
:104C800088000E94C3050E948F0486E60E946B057F
:104C90000E94B705009188001091890060E079E0DA
:104CA0008DE390E0A30192010E945F37A4E6B0E09B
:104CB0000E94B83798012F5F3F4F40E050E00E94BC
:104CC0005F3729013A01A4E6B0E0A70196010E94EE
:104CD000B837A3019201261B370B480B590BCA01A9
:104CE000B90105E228E44EEF0E941F078AE70E94FF
:104CF0006B050E94C3058CED95E00E94270988236F
:104D000009F449C0863960F0109281001092800049
:104D100088E087B914B822982496E2E10C946938A7
:104D2000813598F139813323E9F04C8141504C832E
:104D3000C501B4012AE030E040E050E00E945F3756
:104D400049015A01C701B6010E945F37CA01B90182
:104D50002AE030E040E050E00E945F376B833AE0A9
:104D6000232E37C05C81563150F55F5F5C8356312E
:104D700011F425E1222EAAE0B0E0A50194010E94E1
:104D8000B8374B015C011B8224C08B3018F08B813B
:104D90008F5F8B83312C2B81822F90E0622D70E00E
:104DA0006F5F7F4F0E944C378B83832D0E94F51CD1
:104DB000382E3FEE381708F4A7CF2A81AFCE8AE00D
:104DC000282E41E04B83812C912C5401839451E196
:104DD0005C83312CF2CFA0E0B0E0E1EFF6E20C947E
:104DE0004F3884E092E098D183E280938000109263
:104DF0006F008FEF90E090938B0080938A0083E0A8
:104E000086BB1092820015B881E184B988E088B928
:104E100089E087B9229A21E030E03093890020931D
:104E200088008093810010E0C0E0D2E300E084E6D7
:104E3000C82ED12CE12CF12C88248A9493E0992E51
:104E4000A12CB12CDC17C1F1D43618F0CCE9CD0F70
:104E500001C0CD2F2C2F30E0AFEFB3E00E94A3377D
:104E60006E5C7F4F8F4F9F4FA70196010E945F3767
:104E700029013A0130938B0020938A000E948A0412
:104E8000A8EEB3E0A30192010E94B83761507E4FB3
:104E90008F4F9F4FA50194010E945F37DA01C9012E
:104EA00025E045E26FEF0E9409080E94C305093220
:104EB00018F08CE30E94910880E496E00E94270994
:104EC000082F833868F088E087B91092810010922B
:104ED000800014B82298CDB7DEB7E0E10C946B38AF
:104EE000833310F0DAE003C0882321F0D1E0DC0F37
:104EF00010E001C0DC2F812F0E94F51C182F803F8D
:104F000008F4A0CFE0CFCF93DF938DEC91E004D1F4
:104F10008DE393E00E94E038C82FD0E081E80E9442
:104F200026048C2F0E9426040E948A0424E040E27A
:104F300060E08C2F90E00E9409080E94C30580E485
:104F400096E00E942709882331F0823858F489328C
:104F500088F0CF5FD0E0CF778D2F0E94F51CD82F3F
:104F6000803FE0F26C2F8DE393E00E94ED38DF91FB
:104F7000CF910895C158EECF0F931F93CF93DF9336
:104F800083EF91E0C9D082E493E00E94E038C82F1B
:104F9000D0E00E948A040C2F0C2E000C110BC7FFCE
:104FA0000BC08DE20E946B0523E045E26FEF88277E
:104FB0009927801B910B04C023E045E26FEFC801E5
:104FC0000E9409080E94C30580E496E00E94270918
:104FD000882331F0823888F48932C8F0CF5FD0E07E
:104FE000C13514F0C55603C0CC3E0CF4CB598D2FFF
:104FF0000E94F51CD82F803F60F26C2F82E493E072
:105000000E94ED38DF91CF911F910F910895C1500B
:10501000E6CF813019F480E039CA0895823011F466
:1050200049CD0895833011F4D6CE0895843011F41B
:1050300092CC0895853019F40C94FF1C08958630A5
:1050400029F40E943B040C943D1D0895873011F40F
:1050500093CF0895883021F481E10C94750A089566
:10506000893011F4D8CC08958A3011F44CCF0895CA
:105070008B3011F4A2C108958C3011F40C94220AE3
:105080000895FF920F931F93CF93DF938DE492E0E7
:1050900043D0D0E0C0E01BE01C0F00E0FF24F394FD
:1050A000F00E60E08F2D0E940004023021F48EE3A8
:1050B0000E946B0502C00E94B7051D3018F083EFF7
:1050C000810F01C0812FFFDB0F2D1F5F063031F7ED
:1050D00080E49FE10E9427098111D0E0909139017D
:1050E000913009F4D0E0823340F0CC2379F08C2F5A
:1050F00090DF8DE492E010D002C08111CF5FDF5FBE
:10510000D23820F4CD3038F2CD50C5CF80E0CDB7C5
:10511000DEB7E5E00C947638CF93DF93EC010E9484
:105120003B04CE010E940A06C4E682E00E94910878
:105130004F9902C0C150C9F70E948A04DF91CF91F4
:105140000895A0E0B0E0E7EAF8E20C945638182F92
:10515000062F862F90E0FC01E45BFE4FE491E860AF
:10516000FE2EE12FF0E0E75BFE4FC491FC01E75B10
:10517000FE4FD49110928401109283011092770116
:10518000109278011092790110927A0187EF809342
:1051900089010E94B61688E088B9F7B8D4B9D5B9A4
:1051A000812F0E94C9087C01802F0E94C908E81A3B
:1051B000F90A14B8109256011092550120E030E01F
:1051C0005CE2C52EDD24D394DAE064E6B62E80914D
:1051D000550190915601843D904308F071C0C5B9C6
:1051E0008091550190915601892B89F0F601E21BBF
:1051F000F30B6091550170915601D29FC001D39F6E
:10520000900D11240E943837E617F70750F4C4B9FF
:105210000E94840814B8809155019091560101961E
:1052200028C080915501909156010B97C8F060916C
:10523000550170915601B29EC001B39E900D11248C
:105240000E9438376E177F0758F4C4B90E94790856
:1052500014B880915501909156018C599F4F09C007
:10526000C4B90E947F0814B88091550190915601ED
:105270000A96909356018093550115B80E948608AE
:10528000A895812F0E94C9089C012E193F09809181
:105290005501909156018B31964018F02532310519
:1052A0007CF02D3281E038070CF491CF80915501CC
:1052B00090915601019771F4253185E0380754F03B
:1052C00088E087B988B914B815B8CDB7DEB7E9E07A
:1052D0000C9472388091550190915601880F991F56
:1052E000A0E0B0E080937F0190938001A0938101C2
:1052F000B0938201C90168E270E00E944C37CB0193
:10530000820F931F0E94961A20917F013091800195
:105310004091810150918201DC010E94B837609375
:105320007F0170938001809381019093820160934B
:105330007701709378018093790190937A010E94AC
:105340004617C0907701D0907801E0907901F090F5
:105350007A0182E493E00E94E038A8EEB3E0A81B53
:10536000B10987FDB395A70196010E94C23720E1DC
:1053700037E240E050E00E945F372093770130939E
:1053800078014093790150937A0188E080931E015F
:1053900020937B0130937C0140937D0150937E01EB
:1053A0008091890180938A01109286011092850173
:1053B000009387011093880183CFCF92DF92FF92F1
:1053C0000F931F93CF93DF930E943B048EE091E0F5
:1053D0000E940A060E948A048AEC90E00E940A0653
:1053E00080E493E00E94E03823E040E26EEF90E03A
:1053F0000E94090881E493E00E94E03823E040E243
:105400006EEF90E00E9409088FE393E00E94E0387D
:1054100023E044E06EEF90E00E9409080E948F04B0
:1054200083EC90E00E940A0623E044E06FEF809155
:105430003501909136010E9409080E9494048CEB7A
:1054400090E00E940A0623E044E06FEF80913C0167
:1054500090913D010E94090888E99AE30E9427097A
:105460000E943B0488EB90E00E940A0684E693E0E9
:105470000E94E03890E042970E94510685E693E052
:105480000E94E03890E042970E94510681E693E046
:105490000E94E03890E023E046E464EF42970E94E7
:1054A00009080E948A0483E00E94BA0580E693E01E
:1054B0000E94E03890E042970E94510683E693E014
:1054C0000E94E03890E042970E9451068FE593E0F9
:1054D0000E94E03890E023E046E464EF42970E94A7
:1054E00009080E948F0486E290E00E940A0686E680
:1054F00093E00E94E8380E943C060E9494048FE1E9
:1055000090E00E940A0688E693E00E94E038082EA8
:10551000000C990B0E943C0660E087E00E940004AA
:10552000C0E0FC2EFF0CFC0ED0E0FA94CD17D9F1B0
:105530000F2D0D0F10E0000F111FC8018F5A9C4F47
:105540000E94E8386C01C8018D5B9C4F0E94E838CE
:105550008C018091A501873038F088E99AE30E9498
:1055600027090E943B0403C080E00E94C90580EB2C
:1055700090E00E940A068C2F0E94B4058AE30E94E4
:105580006B058D2F0E94B40580E00E94C90523E0C1
:1055900040E26EEFC6010E94090823E046E462EF94
:1055A000C8010E940908DF5FD33009F0BFCFCF5F89
:1055B000C33009F0B6CF88E99AE30E942709DF914A
:1055C000CF911F910F91FF90DF90CF900895A0E8A9
:1055D000B0E0EDEEFAE20C944E3850908D01D09090
:1055E0009301F0909401852D90E09C01275B3E4F44
:1055F0004901352D3064432E68E0362E6F2C712C16
:10560000F301E75BFE4F8491F401C490C82A149122
:10561000110F182B40927C00AD2CB12CF501E45BEE
:10562000FE4FE491E860E7B938B815B814B80E94A5
:105630008508E12E012F212F40E4BE016F5F7F4FCF
:1056400080E090E17ED0FE01759690E08AE02191A5
:1056500031913695279536952795122F921728F474
:105660008F5F922F803499F701C0192F912F969553
:1056700096959695F12FF91B9F2F803409F453C00E
:10568000FE013196E80FF11DE80FF11D20813181F7
:105690003695279536952795291708F042C082E060
:1056A00080931E01D092510150924F01F09250010F
:1056B000F301EA0DFB1DEA5AFE4F10826D2D8F2D6E
:1056C0000E949E1480915101E0915001F0E0E80F9A
:1056D000F11DEE0FFF1FEE0FFF1FEE55FE4F8080F6
:1056E0009180A280B3801352212F30E0A4E6B0E075
:1056F0000E94A3372B013C019A2D892D782D662716
:10570000A50194012057354E4F4F5F4F0E945F37E0
:10571000C301B2010E945F3730934E0120934D01C7
:105720000AC08F5FAACF9F2DFD2C80919301D812C4
:1057300002C0D92E63CFC058DF4FE1E10C946A3824
:105740000895E62FF72F903009F49395E5B8C4B883
:10575000B6EFB0937A00A5E0A0937B00A8E0A093F9
:10576000810010928000AFEFA0938500A093840089
:10577000A6E0A093360010928B0010928A00B3E04E
:10578000AFE3A91B51E0392F33302AF0A05CBC4FA6
:1057900053953350F9CFB0938900A0938800A0911E
:1057A0007A00A4FFFCCFB6EBB0937A00A2E0A093FE
:1057B0006F00A9E0A093810062E0A0E0A0937B00CD
:1057C000A1E0A09353008895E5B8C4B884FF19C040
:1057D000A8E10000AA95F1F7EF93FF93E7B1F8B1C4
:1057E000A4E0C2FCA2E0C0FCA1E0BF2FBA2BAE2B0C
:1057F000B8B904B9A7B9E7B9F8B9FF91EF910AC0F0
:10580000DFCFACE100000000AA95F1F725B9E5B8BB
:10581000000004B9A0918400A0918500B091890096
:10582000A395AB1768F7A0917A00A4FFF3CFB6EB6E
:10583000B0937A006A9571F7609178007091790061
:10584000308186FD630F6193308186FD731F80FF79
:105850007193652F4A9579F710926F00109281002D
:10586000B6E0B0937A0008958F929F92AF92BF9264
:10587000CF92DF92EF92FF92FC014C01A12CB12C50
:105880007401DD24CC244F2F55279F01DF010E9496
:10589000A3379C013695279536952795C90196958E
:1058A000879596958795BC0176956795649FD001FD
:1058B000659FB00D749FB00D1124BF017295629564
:1058C0006F7067277F706727460F571FE40FF51F1C
:1058D000281B390BA90160E070E04E0F5F1F611DAE
:1058E000711DCD0123E0969587952A95E1F7A81BB8
:1058F000B90B9A01AB012A0F3B1F411D511DC50178
:10590000B4010E941D376C0D7D1D8E1D9F1DFF90E3
:10591000EF90DF90CF90BF90AF909F908F900895C1
:10592000A3E0B2E0E6E9FCE20C944D38182FCD5F1D
:10593000DD4F6883C350D240CF5FDD4F4883C150F5
:10594000D2400E94B616E12FF0E0E75BFE4FF490E4
:10595000BF2CBB0CCD5FDD4F2881C350D240E22F5E
:10596000F0E0E45BFE4FE491E860E7B915B8F4B805
:10597000812F806480937C000E948508CF5FDD4F7B
:105980003881C150D2403170CE5FDD4F3883C25074
:10599000D240CF5FDD4F4881C150D24040FD02C0B0
:1059A000AB2C01C0AF2CE0E2DE2E80E090E0CF2CEB
:1059B000EA2C0B2D2A2D44E7BE016F5F7F4FC1DE1D
:1059C000DA9480E490E0D110F2CF14B81E0157E4CD
:1059D000250E311C73E2472E512C612C712CC12CE9
:1059E000D12C7601812C912C5401CE5FDD4F888122
:1059F000C250D240F101882341F08081918120E0A2
:105A000030E8281B390BC90102C0808191812CDF4D
:105A10009C0140E050E0820E931EA41EB51EC301FF
:105A2000B2010E941D37C60ED71EE81EF91EFFEFF9
:105A30004F1A5F0A6F0A7F0A22E0220E311C34E7F8
:105A4000431651046104710481F6C501B40121E5D6
:105A500030E040E050E00E945F37ABEBB7E10E94DE
:105A6000B837A7019601261B370B480B590B64E08A
:105A700056954795379527956A95D1F760EE7DEC59
:105A800081EC9FE80E945F3769017A01CF5FDD4FAB
:105A90003881C150D24031FD20C0812F880F180FAE
:105AA000CD5FDD4F8880C350D2408A94180D812F7E
:105AB00090E0CE5FDD4F4881C250D240880F991FE1
:105AC000442319F08D5B9C4F02C08F5A9C4F0E945B
:105AD000E838C81AD90AE108F108C701B601CD5F54
